{
  "_format": "hh-sol-artifact-1",
  "contractName": "AgriSupplyChain",
  "sourceName": "contracts/AgriSupplyChain.sol",
  "abi": [
    {
      "inputs": [],
      "stateMutability": "nonpayable",
      "type": "constructor"
    },
    {
      "anonymous": false,
      "inputs": [
        {
          "indexed": true,
          "internalType": "uint256",
          "name": "id",
          "type": "uint256"
        },
        {
          "indexed": false,
          "internalType": "uint256",
          "name": "distributorId",
          "type": "uint256"
        }
      ],
      "name": "ProductDistributed",
      "type": "event"
    },
    {
      "anonymous": false,
      "inputs": [
        {
          "indexed": true,
          "internalType": "uint256",
          "name": "id",
          "type": "uint256"
        },
        {
          "indexed": false,
          "internalType": "uint256",
          "name": "farmerId",
          "type": "uint256"
        }
      ],
      "name": "ProductHarvested",
      "type": "event"
    },
    {
      "anonymous": false,
      "inputs": [
        {
          "indexed": true,
          "internalType": "uint256",
          "name": "id",
          "type": "uint256"
        },
        {
          "indexed": false,
          "internalType": "uint256",
          "name": "farmerId",
          "type": "uint256"
        }
      ],
      "name": "ProductPlanted",
      "type": "event"
    },
    {
      "anonymous": false,
      "inputs": [
        {
          "indexed": true,
          "internalType": "uint256",
          "name": "id",
          "type": "uint256"
        },
        {
          "indexed": false,
          "internalType": "uint256",
          "name": "processorId",
          "type": "uint256"
        }
      ],
      "name": "ProductProcessed",
      "type": "event"
    },
    {
      "anonymous": false,
      "inputs": [
        {
          "indexed": true,
          "internalType": "uint256",
          "name": "id",
          "type": "uint256"
        },
        {
          "indexed": false,
          "internalType": "uint256",
          "name": "retailerId",
          "type": "uint256"
        }
      ],
      "name": "ProductReceived",
      "type": "event"
    },
    {
      "anonymous": false,
      "inputs": [
        {
          "indexed": true,
          "internalType": "uint256",
          "name": "id",
          "type": "uint256"
        },
        {
          "indexed": false,
          "internalType": "string",
          "name": "name",
          "type": "string"
        },
        {
          "indexed": false,
          "internalType": "string",
          "name": "description",
          "type": "string"
        }
      ],
      "name": "ProductRegistered",
      "type": "event"
    },
    {
      "anonymous": false,
      "inputs": [
        {
          "indexed": true,
          "internalType": "uint256",
          "name": "id",
          "type": "uint256"
        },
        {
          "indexed": false,
          "internalType": "uint256",
          "name": "retailerId",
          "type": "uint256"
        }
      ],
      "name": "ProductSold",
      "type": "event"
    },
    {
      "inputs": [
        {
          "internalType": "uint256",
          "name": "",
          "type": "uint256"
        }
      ],
      "name": "Distributors",
      "outputs": [
        {
          "internalType": "address",
          "name": "addr",
          "type": "address"
        },
        {
          "internalType": "uint256",
          "name": "id",
          "type": "uint256"
        },
        {
          "internalType": "string",
          "name": "name",
          "type": "string"
        },
        {
          "internalType": "string",
          "name": "location",
          "type": "string"
        }
      ],
      "stateMutability": "view",
      "type": "function"
    },
    {
      "inputs": [
        {
          "internalType": "uint256",
          "name": "",
          "type": "uint256"
        }
      ],
      "name": "Farmers",
      "outputs": [
        {
          "internalType": "address",
          "name": "addr",
          "type": "address"
        },
        {
          "internalType": "uint256",
          "name": "id",
          "type": "uint256"
        },
        {
          "internalType": "string",
          "name": "name",
          "type": "string"
        },
        {
          "internalType": "string",
          "name": "location",
          "type": "string"
        }
      ],
      "stateMutability": "view",
      "type": "function"
    },
    {
      "inputs": [],
      "name": "Owner",
      "outputs": [
        {
          "internalType": "address",
          "name": "",
          "type": "address"
        }
      ],
      "stateMutability": "view",
      "type": "function"
    },
    {
      "inputs": [
        {
          "internalType": "uint256",
          "name": "",
          "type": "uint256"
        }
      ],
      "name": "Processors",
      "outputs": [
        {
          "internalType": "address",
          "name": "addr",
          "type": "address"
        },
        {
          "internalType": "uint256",
          "name": "id",
          "type": "uint256"
        },
        {
          "internalType": "string",
          "name": "name",
          "type": "string"
        },
        {
          "internalType": "string",
          "name": "location",
          "type": "string"
        }
      ],
      "stateMutability": "view",
      "type": "function"
    },
    {
      "inputs": [
        {
          "internalType": "uint256",
          "name": "",
          "type": "uint256"
        }
      ],
      "name": "ProductStock",
      "outputs": [
        {
          "internalType": "uint256",
          "name": "id",
          "type": "uint256"
        },
        {
          "internalType": "string",
          "name": "name",
          "type": "string"
        },
        {
          "internalType": "string",
          "name": "description",
          "type": "string"
        },
        {
          "internalType": "uint256",
          "name": "farmerId",
          "type": "uint256"
        },
        {
          "internalType": "uint256",
          "name": "processorId",
          "type": "uint256"
        },
        {
          "internalType": "uint256",
          "name": "distributorId",
          "type": "uint256"
        },
        {
          "internalType": "uint256",
          "name": "retailerId",
          "type": "uint256"
        },
        {
          "internalType": "enum AgriSupplyChain.STAGE",
          "name": "stage",
          "type": "uint8"
        }
      ],
      "stateMutability": "view",
      "type": "function"
    },
    {
      "inputs": [
        {
          "internalType": "uint256",
          "name": "",
          "type": "uint256"
        }
      ],
      "name": "Retailers",
      "outputs": [
        {
          "internalType": "address",
          "name": "addr",
          "type": "address"
        },
        {
          "internalType": "uint256",
          "name": "id",
          "type": "uint256"
        },
        {
          "internalType": "string",
          "name": "name",
          "type": "string"
        },
        {
          "internalType": "string",
          "name": "location",
          "type": "string"
        }
      ],
      "stateMutability": "view",
      "type": "function"
    },
    {
      "inputs": [
        {
          "internalType": "address",
          "name": "_address",
          "type": "address"
        },
        {
          "internalType": "string",
          "name": "_name",
          "type": "string"
        },
        {
          "internalType": "string",
          "name": "_location",
          "type": "string"
        }
      ],
      "name": "addDistributor",
      "outputs": [],
      "stateMutability": "nonpayable",
      "type": "function"
    },
    {
      "inputs": [
        {
          "internalType": "address",
          "name": "_address",
          "type": "address"
        },
        {
          "internalType": "string",
          "name": "_name",
          "type": "string"
        },
        {
          "internalType": "string",
          "name": "_location",
          "type": "string"
        }
      ],
      "name": "addFarmer",
      "outputs": [],
      "stateMutability": "nonpayable",
      "type": "function"
    },
    {
      "inputs": [
        {
          "internalType": "address",
          "name": "_address",
          "type": "address"
        },
        {
          "internalType": "string",
          "name": "_name",
          "type": "string"
        },
        {
          "internalType": "string",
          "name": "_location",
          "type": "string"
        }
      ],
      "name": "addProcessor",
      "outputs": [],
      "stateMutability": "nonpayable",
      "type": "function"
    },
    {
      "inputs": [
        {
          "internalType": "string",
          "name": "_name",
          "type": "string"
        },
        {
          "internalType": "string",
          "name": "_description",
          "type": "string"
        }
      ],
      "name": "addProduct",
      "outputs": [],
      "stateMutability": "nonpayable",
      "type": "function"
    },
    {
      "inputs": [
        {
          "internalType": "address",
          "name": "_address",
          "type": "address"
        },
        {
          "internalType": "string",
          "name": "_name",
          "type": "string"
        },
        {
          "internalType": "string",
          "name": "_location",
          "type": "string"
        }
      ],
      "name": "addRetailer",
      "outputs": [],
      "stateMutability": "nonpayable",
      "type": "function"
    },
    {
      "inputs": [
        {
          "internalType": "uint256",
          "name": "_productId",
          "type": "uint256"
        }
      ],
      "name": "distributeProduct",
      "outputs": [],
      "stateMutability": "nonpayable",
      "type": "function"
    },
    {
      "inputs": [],
      "name": "distributorCtr",
      "outputs": [
        {
          "internalType": "uint256",
          "name": "",
          "type": "uint256"
        }
      ],
      "stateMutability": "view",
      "type": "function"
    },
    {
      "inputs": [],
      "name": "farmerCtr",
      "outputs": [
        {
          "internalType": "uint256",
          "name": "",
          "type": "uint256"
        }
      ],
      "stateMutability": "view",
      "type": "function"
    },
    {
      "inputs": [
        {
          "internalType": "address",
          "name": "_user",
          "type": "address"
        }
      ],
      "name": "getUserRole",
      "outputs": [
        {
          "internalType": "string",
          "name": "",
          "type": "string"
        }
      ],
      "stateMutability": "view",
      "type": "function"
    },
    {
      "inputs": [
        {
          "internalType": "uint256",
          "name": "_productId",
          "type": "uint256"
        }
      ],
      "name": "harvestProduct",
      "outputs": [],
      "stateMutability": "nonpayable",
      "type": "function"
    },
    {
      "inputs": [
        {
          "internalType": "uint256",
          "name": "_productId",
          "type": "uint256"
        }
      ],
      "name": "plantProduct",
      "outputs": [],
      "stateMutability": "nonpayable",
      "type": "function"
    },
    {
      "inputs": [
        {
          "internalType": "uint256",
          "name": "_productId",
          "type": "uint256"
        }
      ],
      "name": "processProduct",
      "outputs": [],
      "stateMutability": "nonpayable",
      "type": "function"
    },
    {
      "inputs": [],
      "name": "processorCtr",
      "outputs": [
        {
          "internalType": "uint256",
          "name": "",
          "type": "uint256"
        }
      ],
      "stateMutability": "view",
      "type": "function"
    },
    {
      "inputs": [],
      "name": "productCtr",
      "outputs": [
        {
          "internalType": "uint256",
          "name": "",
          "type": "uint256"
        }
      ],
      "stateMutability": "view",
      "type": "function"
    },
    {
      "inputs": [
        {
          "internalType": "uint256",
          "name": "_productId",
          "type": "uint256"
        }
      ],
      "name": "receiveProduct",
      "outputs": [],
      "stateMutability": "nonpayable",
      "type": "function"
    },
    {
      "inputs": [],
      "name": "retailerCtr",
      "outputs": [
        {
          "internalType": "uint256",
          "name": "",
          "type": "uint256"
        }
      ],
      "stateMutability": "view",
      "type": "function"
    },
    {
      "inputs": [
        {
          "internalType": "uint256",
          "name": "_productId",
          "type": "uint256"
        }
      ],
      "name": "sellProduct",
      "outputs": [],
      "stateMutability": "nonpayable",
      "type": "function"
    },
    {
      "inputs": [
        {
          "internalType": "uint256",
          "name": "_productId",
          "type": "uint256"
        }
      ],
      "name": "showStage",
      "outputs": [
        {
          "internalType": "string",
          "name": "",
          "type": "string"
        }
      ],
      "stateMutability": "view",
      "type": "function"
    }
  ],
  "bytecode": "0x608060405260006001556000600255600060035560006004556000600555348015602857600080fd5b50336000806101000a81548173ffffffffffffffffffffffffffffffffffffffff021916908373ffffffffffffffffffffffffffffffffffffffff160217905550613585806100786000396000f3fe608060405234801561001057600080fd5b50600436106101585760003560e01c80637acd0789116100c3578063d4eb879b1161007c578063d4eb879b146103d1578063d85456a4146103ef578063e101a2e014610422578063e101f66414610452578063e1aa665f1461046e578063e9bf6b4c1461048c57610158565b80637acd078914610323578063857ddb041461033f578063a64ca9161461035b578063aaea34aa14610379578063b4a99a4e14610397578063ca2efb55146103b557610158565b8063492deb1511610115578063492deb151461021b5780634bda300e1461023757806351bc37b81461026a5780635573d8b21461029d57806366abf708146102d45780636ce2cc701461030757610158565b80630e4000db1461015d578063278208511461017957806329d78328146101a95780632a4af440146101c55780632e2af791146101e15780633238b16b146101fd575b600080fd5b6101776004803603810190610172919061285f565b6104a8565b005b610193600480360381019061018e91906128ea565b610669565b6040516101a091906129a7565b60405180910390f35b6101c360048036038101906101be919061285f565b6109d5565b005b6101df60048036038101906101da9190612afe565b610b96565b005b6101fb60048036038101906101f6919061285f565b610d0f565b005b610205610ed6565b6040516102129190612b98565b60405180910390f35b6102356004803603810190610230919061285f565b610edc565b005b610251600480360381019061024c919061285f565b6110a2565b6040516102619493929190612bc2565b60405180910390f35b610284600480360381019061027f919061285f565b611202565b6040516102949493929190612bc2565b60405180910390f35b6102b760048036038101906102b2919061285f565b611362565b6040516102cb989796959493929190612c8c565b60405180910390f35b6102ee60048036038101906102e9919061285f565b6114c7565b6040516102fe9493929190612bc2565b60405180910390f35b610321600480360381019061031c919061285f565b611627565b005b61033d60048036038101906103389190612afe565b6117e8565b005b61035960048036038101906103549190612afe565b611961565b005b610363611ada565b6040516103709190612b98565b60405180910390f35b610381611ae0565b60405161038e9190612b98565b60405180910390f35b61039f611ae6565b6040516103ac9190612d18565b60405180910390f35b6103cf60048036038101906103ca9190612d33565b611b0a565b005b6103d9611d58565b6040516103e69190612b98565b60405180910390f35b6104096004803603810190610404919061285f565b611d5e565b6040516104199493929190612bc2565b60405180910390f35b61043c6004803603810190610437919061285f565b611ebe565b60405161044991906129a7565b60405180910390f35b61046c6004803603810190610467919061285f565b612251565b005b610476612412565b6040516104839190612b98565b60405180910390f35b6104a660048036038101906104a19190612afe565b612418565b005b6000811180156104ba57506001548111155b6104f9576040517f08c379a00000000000000000000000000000000000000000000000000000000081526004016104f090612df7565b60405180910390fd5b600061050433612591565b905060008111610549576040517f08c379a000000000000000000000000000000000000000000000000000000000815260040161054090612e63565b60405180910390fd5b6003600681111561055d5761055c612c15565b5b6006600084815260200190815260200160002060070160009054906101000a900460ff16600681111561059357610592612c15565b5b146105d3576040517f08c379a00000000000000000000000000000000000000000000000000000000081526004016105ca90612ecf565b60405180910390fd5b80600660008481526020019081526020016000206005018190555060046006600084815260200190815260200160002060070160006101000a81548160ff0219169083600681111561062857610627612c15565b5b0217905550817f63487d0c4cd6b363d7e29a5653e40f2d7711925b88aab0194e43f63881836c658260405161065d9190612b98565b60405180910390a25050565b60606000600190505b6002548111610735578273ffffffffffffffffffffffffffffffffffffffff166007600083815260200190815260200160002060000160009054906101000a900473ffffffffffffffffffffffffffffffffffffffff1673ffffffffffffffffffffffffffffffffffffffff1603610722576040518060400160405280600681526020017f4661726d657200000000000000000000000000000000000000000000000000008152509150506109d0565b808061072d90612f1e565b915050610672565b506000600190505b6003548111610800578273ffffffffffffffffffffffffffffffffffffffff166008600083815260200190815260200160002060000160009054906101000a900473ffffffffffffffffffffffffffffffffffffffff1673ffffffffffffffffffffffffffffffffffffffff16036107ed576040518060400160405280600981526020017f50726f636573736f7200000000000000000000000000000000000000000000008152509150506109d0565b80806107f890612f1e565b91505061073d565b506000600190505b60045481116108cb578273ffffffffffffffffffffffffffffffffffffffff166009600083815260200190815260200160002060000160009054906101000a900473ffffffffffffffffffffffffffffffffffffffff1673ffffffffffffffffffffffffffffffffffffffff16036108b8576040518060400160405280600b81526020017f4469737472696275746f720000000000000000000000000000000000000000008152509150506109d0565b80806108c390612f1e565b915050610808565b506000600190505b6005548111610996578273ffffffffffffffffffffffffffffffffffffffff16600a600083815260200190815260200160002060000160009054906101000a900473ffffffffffffffffffffffffffffffffffffffff1673ffffffffffffffffffffffffffffffffffffffff1603610983576040518060400160405280600881526020017f52657461696c65720000000000000000000000000000000000000000000000008152509150506109d0565b808061098e90612f1e565b9150506108d3565b506040518060400160405280600781526020017f556e6b6e6f776e0000000000000000000000000000000000000000000000000081525090505b919050565b6000811180156109e757506001548111155b610a26576040517f08c379a0000000000000000000000000000000000000000000000000000000008152600401610a1d90612df7565b60405180910390fd5b6000610a3133612632565b905060008111610a76576040517f08c379a0000000000000000000000000000000000000000000000000000000008152600401610a6d90612fb2565b60405180910390fd5b60046006811115610a8a57610a89612c15565b5b6006600084815260200190815260200160002060070160009054906101000a900460ff166006811115610ac057610abf612c15565b5b14610b00576040517f08c379a0000000000000000000000000000000000000000000000000000000008152600401610af790612ecf565b60405180910390fd5b80600660008481526020019081526020016000206006018190555060056006600084815260200190815260200160002060070160006101000a81548160ff02191690836006811115610b5557610b54612c15565b5b0217905550817f9c98932b9d11a13740a99d32694a48d8dd422daf1ee16f0f4f417171474f4d7782604051610b8a9190612b98565b60405180910390a25050565b60008054906101000a900473ffffffffffffffffffffffffffffffffffffffff1673ffffffffffffffffffffffffffffffffffffffff163373ffffffffffffffffffffffffffffffffffffffff1614610c24576040517f08c379a0000000000000000000000000000000000000000000000000000000008152600401610c1b90613044565b60405180910390fd5b60046000815480929190610c3790612f1e565b919050555060405180608001604052808473ffffffffffffffffffffffffffffffffffffffff16815260200160045481526020018381526020018281525060096000600454815260200190815260200160002060008201518160000160006101000a81548173ffffffffffffffffffffffffffffffffffffffff021916908373ffffffffffffffffffffffffffffffffffffffff160217905550602082015181600101556040820151816002019081610cf09190613270565b506060820151816003019081610d069190613270565b50905050505050565b600081118015610d2157506001548111155b610d60576040517f08c379a0000000000000000000000000000000000000000000000000000000008152600401610d5790612df7565b60405180910390fd5b6000610d6b336126d3565b9050600081118015610d925750600660008381526020019081526020016000206003015481145b610dd1576040517f08c379a0000000000000000000000000000000000000000000000000000000008152600401610dc89061338e565b60405180910390fd5b60016006811115610de557610de4612c15565b5b6006600084815260200190815260200160002060070160009054906101000a900460ff166006811115610e1b57610e1a612c15565b5b14610e5b576040517f08c379a0000000000000000000000000000000000000000000000000000000008152600401610e5290612ecf565b60405180910390fd5b60026006600084815260200190815260200160002060070160006101000a81548160ff02191690836006811115610e9557610e94612c15565b5b0217905550817f5c5050ff0eef46e09811c8aad89c5b12eadbc7a250e3055075708e08289b037a82604051610eca9190612b98565b60405180910390a25050565b60055481565b600081118015610eee57506001548111155b610f2d576040517f08c379a0000000000000000000000000000000000000000000000000000000008152600401610f2490612df7565b60405180910390fd5b6000610f3833612632565b9050600081118015610f5f5750600660008381526020019081526020016000206006015481145b610f9e576040517f08c379a0000000000000000000000000000000000000000000000000000000008152600401610f9590612fb2565b60405180910390fd5b60056006811115610fb257610fb1612c15565b5b6006600084815260200190815260200160002060070160009054906101000a900460ff166006811115610fe857610fe7612c15565b5b14611028576040517f08c379a000000000000000000000000000000000000000000000000000000000815260040161101f90612ecf565b60405180910390fd5b600680600084815260200190815260200160002060070160006101000a81548160ff0219169083600681111561106157611060612c15565b5b0217905550817f23a1684ce44b9a79ff32baebeef9269b128c6e21d507a2374852b1bb48325027826040516110969190612b98565b60405180910390a25050565b60086020528060005260406000206000915090508060000160009054906101000a900473ffffffffffffffffffffffffffffffffffffffff16908060010154908060020180546110f190613093565b80601f016020809104026020016040519081016040528092919081815260200182805461111d90613093565b801561116a5780601f1061113f5761010080835404028352916020019161116a565b820191906000526020600020905b81548152906001019060200180831161114d57829003601f168201915b50505050509080600301805461117f90613093565b80601f01602080910402602001604051908101604052809291908181526020018280546111ab90613093565b80156111f85780601f106111cd576101008083540402835291602001916111f8565b820191906000526020600020905b8154815290600101906020018083116111db57829003601f168201915b5050505050905084565b60096020528060005260406000206000915090508060000160009054906101000a900473ffffffffffffffffffffffffffffffffffffffff169080600101549080600201805461125190613093565b80601f016020809104026020016040519081016040528092919081815260200182805461127d90613093565b80156112ca5780601f1061129f576101008083540402835291602001916112ca565b820191906000526020600020905b8154815290600101906020018083116112ad57829003601f168201915b5050505050908060030180546112df90613093565b80601f016020809104026020016040519081016040528092919081815260200182805461130b90613093565b80156113585780601f1061132d57610100808354040283529160200191611358565b820191906000526020600020905b81548152906001019060200180831161133b57829003601f168201915b5050505050905084565b600660205280600052604060002060009150905080600001549080600101805461138b90613093565b80601f01602080910402602001604051908101604052809291908181526020018280546113b790613093565b80156114045780601f106113d957610100808354040283529160200191611404565b820191906000526020600020905b8154815290600101906020018083116113e757829003601f168201915b50505050509080600201805461141990613093565b80601f016020809104026020016040519081016040528092919081815260200182805461144590613093565b80156114925780601f1061146757610100808354040283529160200191611492565b820191906000526020600020905b81548152906001019060200180831161147557829003601f168201915b5050505050908060030154908060040154908060050154908060060154908060070160009054906101000a900460ff16905088565b60076020528060005260406000206000915090508060000160009054906101000a900473ffffffffffffffffffffffffffffffffffffffff169080600101549080600201805461151690613093565b80601f016020809104026020016040519081016040528092919081815260200182805461154290613093565b801561158f5780601f106115645761010080835404028352916020019161158f565b820191906000526020600020905b81548152906001019060200180831161157257829003601f168201915b5050505050908060030180546115a490613093565b80601f01602080910402602001604051908101604052809291908181526020018280546115d090613093565b801561161d5780601f106115f25761010080835404028352916020019161161d565b820191906000526020600020905b81548152906001019060200180831161160057829003601f168201915b5050505050905084565b60008111801561163957506001548111155b611678576040517f08c379a000000000000000000000000000000000000000000000000000000000815260040161166f90612df7565b60405180910390fd5b6000611683336126d3565b9050600081116116c8576040517f08c379a00000000000000000000000000000000000000000000000000000000081526004016116bf9061338e565b60405180910390fd5b600060068111156116dc576116db612c15565b5b6006600084815260200190815260200160002060070160009054906101000a900460ff16600681111561171257611711612c15565b5b14611752576040517f08c379a000000000000000000000000000000000000000000000000000000000815260040161174990612ecf565b60405180910390fd5b80600660008481526020019081526020016000206003018190555060016006600084815260200190815260200160002060070160006101000a81548160ff021916908360068111156117a7576117a6612c15565b5b0217905550817fc28530a4519237ef20343b4c8596a343c18010c0cab801d52196fe821369ff84826040516117dc9190612b98565b60405180910390a25050565b60008054906101000a900473ffffffffffffffffffffffffffffffffffffffff1673ffffffffffffffffffffffffffffffffffffffff163373ffffffffffffffffffffffffffffffffffffffff1614611876576040517f08c379a000000000000000000000000000000000000000000000000000000000815260040161186d90613044565b60405180910390fd5b6003600081548092919061188990612f1e565b919050555060405180608001604052808473ffffffffffffffffffffffffffffffffffffffff16815260200160035481526020018381526020018281525060086000600354815260200190815260200160002060008201518160000160006101000a81548173ffffffffffffffffffffffffffffffffffffffff021916908373ffffffffffffffffffffffffffffffffffffffff1602179055506020820151816001015560408201518160020190816119429190613270565b5060608201518160030190816119589190613270565b50905050505050565b60008054906101000a900473ffffffffffffffffffffffffffffffffffffffff1673ffffffffffffffffffffffffffffffffffffffff163373ffffffffffffffffffffffffffffffffffffffff16146119ef576040517f08c379a00000000000000000000000000000000000000000000000000000000081526004016119e690613044565b60405180910390fd5b60056000815480929190611a0290612f1e565b919050555060405180608001604052808473ffffffffffffffffffffffffffffffffffffffff168152602001600554815260200183815260200182815250600a6000600554815260200190815260200160002060008201518160000160006101000a81548173ffffffffffffffffffffffffffffffffffffffff021916908373ffffffffffffffffffffffffffffffffffffffff160217905550602082015181600101556040820151816002019081611abb9190613270565b506060820151816003019081611ad19190613270565b50905050505050565b60035481565b60015481565b60008054906101000a900473ffffffffffffffffffffffffffffffffffffffff1681565b60008054906101000a900473ffffffffffffffffffffffffffffffffffffffff1673ffffffffffffffffffffffffffffffffffffffff163373ffffffffffffffffffffffffffffffffffffffff1614611b98576040517f08c379a0000000000000000000000000000000000000000000000000000000008152600401611b8f90613044565b60405180910390fd5b6000600254118015611bac57506000600354115b8015611bba57506000600454115b8015611bc857506000600554115b611c07576040517f08c379a0000000000000000000000000000000000000000000000000000000008152600401611bfe90613420565b60405180910390fd5b60016000815480929190611c1a90612f1e565b919050555060405180610100016040528060015481526020018381526020018281526020016000815260200160008152602001600081526020016000815260200160006006811115611c6f57611c6e612c15565b5b815250600660006001548152602001908152602001600020600082015181600001556020820151816001019081611ca69190613270565b506040820151816002019081611cbc9190613270565b50606082015181600301556080820151816004015560a0820151816005015560c0820151816006015560e08201518160070160006101000a81548160ff02191690836006811115611d1057611d0f612c15565b5b02179055509050506001547fbb788d1bdfb4363138615cb6605f118fc2eb506f6efd90abf0dcc727458e5db78383604051611d4c929190613440565b60405180910390a25050565b60045481565b600a6020528060005260406000206000915090508060000160009054906101000a900473ffffffffffffffffffffffffffffffffffffffff1690806001015490806002018054611dad90613093565b80601f0160208091040260200160405190810160405280929190818152602001828054611dd990613093565b8015611e265780601f10611dfb57610100808354040283529160200191611e26565b820191906000526020600020905b815481529060010190602001808311611e0957829003601f168201915b505050505090806003018054611e3b90613093565b80601f0160208091040260200160405190810160405280929190818152602001828054611e6790613093565b8015611eb45780601f10611e8957610100808354040283529160200191611eb4565b820191906000526020600020905b815481529060010190602001808311611e9757829003601f168201915b5050505050905084565b6060600060015411611f05576040517f08c379a0000000000000000000000000000000000000000000000000000000008152600401611efc906134c3565b60405180910390fd5b60006006600084815260200190815260200160002060070160009054906101000a900460ff16905060006006811115611f4157611f40612c15565b5b816006811115611f5457611f53612c15565b5b03611f97576040518060400160405280601281526020017f50726f647563742052656769737465726564000000000000000000000000000081525091505061224c565b60016006811115611fab57611faa612c15565b5b816006811115611fbe57611fbd612c15565b5b03612001576040518060400160405280600781526020017f506c616e7465640000000000000000000000000000000000000000000000000081525091505061224c565b6002600681111561201557612014612c15565b5b81600681111561202857612027612c15565b5b0361206b576040518060400160405280600981526020017f486172766573746564000000000000000000000000000000000000000000000081525091505061224c565b6003600681111561207f5761207e612c15565b5b81600681111561209257612091612c15565b5b036120d5576040518060400160405280600981526020017f50726f636573736564000000000000000000000000000000000000000000000081525091505061224c565b600460068111156120e9576120e8612c15565b5b8160068111156120fc576120fb612c15565b5b0361213f576040518060400160405280600b81526020017f446973747269627574656400000000000000000000000000000000000000000081525091505061224c565b6005600681111561215357612152612c15565b5b81600681111561216657612165612c15565b5b036121a9576040518060400160405280600981526020017f496e2052657461696c000000000000000000000000000000000000000000000081525091505061224c565b6006808111156121bc576121bb612c15565b5b8160068111156121cf576121ce612c15565b5b03612212576040518060400160405280600481526020017f536f6c640000000000000000000000000000000000000000000000000000000081525091505061224c565b6040518060400160405280600d81526020017f556e6b6e6f776e205374616765000000000000000000000000000000000000008152509150505b919050565b60008111801561226357506001548111155b6122a2576040517f08c379a000000000000000000000000000000000000000000000000000000000815260040161229990612df7565b60405180910390fd5b60006122ad33612774565b9050600081116122f2576040517f08c379a00000000000000000000000000000000000000000000000000000000081526004016122e99061352f565b60405180910390fd5b6002600681111561230657612305612c15565b5b6006600084815260200190815260200160002060070160009054906101000a900460ff16600681111561233c5761233b612c15565b5b1461237c576040517f08c379a000000000000000000000000000000000000000000000000000000000815260040161237390612ecf565b60405180910390fd5b80600660008481526020019081526020016000206004018190555060036006600084815260200190815260200160002060070160006101000a81548160ff021916908360068111156123d1576123d0612c15565b5b0217905550817fbccca09e0341bd2f139a1ae251a4fdfee344bfe4d97469dd55d5b202fddc9f36826040516124069190612b98565b60405180910390a25050565b60025481565b60008054906101000a900473ffffffffffffffffffffffffffffffffffffffff1673ffffffffffffffffffffffffffffffffffffffff163373ffffffffffffffffffffffffffffffffffffffff16146124a6576040517f08c379a000000000000000000000000000000000000000000000000000000000815260040161249d90613044565b60405180910390fd5b600260008154809291906124b990612f1e565b919050555060405180608001604052808473ffffffffffffffffffffffffffffffffffffffff16815260200160025481526020018381526020018281525060076000600254815260200190815260200160002060008201518160000160006101000a81548173ffffffffffffffffffffffffffffffffffffffff021916908373ffffffffffffffffffffffffffffffffffffffff1602179055506020820151816001015560408201518160020190816125729190613270565b5060608201518160030190816125889190613270565b50905050505050565b600080600190505b6004548111612627578273ffffffffffffffffffffffffffffffffffffffff166009600083815260200190815260200160002060000160009054906101000a900473ffffffffffffffffffffffffffffffffffffffff1673ffffffffffffffffffffffffffffffffffffffff1603612614578091505061262d565b808061261f90612f1e565b915050612599565b50600090505b919050565b600080600190505b60055481116126c8578273ffffffffffffffffffffffffffffffffffffffff16600a600083815260200190815260200160002060000160009054906101000a900473ffffffffffffffffffffffffffffffffffffffff1673ffffffffffffffffffffffffffffffffffffffff16036126b557809150506126ce565b80806126c090612f1e565b91505061263a565b50600090505b919050565b600080600190505b6002548111612769578273ffffffffffffffffffffffffffffffffffffffff166007600083815260200190815260200160002060000160009054906101000a900473ffffffffffffffffffffffffffffffffffffffff1673ffffffffffffffffffffffffffffffffffffffff1603612756578091505061276f565b808061276190612f1e565b9150506126db565b50600090505b919050565b600080600190505b600354811161280a578273ffffffffffffffffffffffffffffffffffffffff166008600083815260200190815260200160002060000160009054906101000a900473ffffffffffffffffffffffffffffffffffffffff1673ffffffffffffffffffffffffffffffffffffffff16036127f75780915050612810565b808061280290612f1e565b91505061277c565b50600090505b919050565b6000604051905090565b600080fd5b600080fd5b6000819050919050565b61283c81612829565b811461284757600080fd5b50565b60008135905061285981612833565b92915050565b6000602082840312156128755761287461281f565b5b60006128838482850161284a565b91505092915050565b600073ffffffffffffffffffffffffffffffffffffffff82169050919050565b60006128b78261288c565b9050919050565b6128c7816128ac565b81146128d257600080fd5b50565b6000813590506128e4816128be565b92915050565b600060208284031215612900576128ff61281f565b5b600061290e848285016128d5565b91505092915050565b600081519050919050565b600082825260208201905092915050565b60005b83811015612951578082015181840152602081019050612936565b60008484015250505050565b6000601f19601f8301169050919050565b600061297982612917565b6129838185612922565b9350612993818560208601612933565b61299c8161295d565b840191505092915050565b600060208201905081810360008301526129c1818461296e565b905092915050565b600080fd5b600080fd5b7f4e487b7100000000000000000000000000000000000000000000000000000000600052604160045260246000fd5b612a0b8261295d565b810181811067ffffffffffffffff82111715612a2a57612a296129d3565b5b80604052505050565b6000612a3d612815565b9050612a498282612a02565b919050565b600067ffffffffffffffff821115612a6957612a686129d3565b5b612a728261295d565b9050602081019050919050565b82818337600083830152505050565b6000612aa1612a9c84612a4e565b612a33565b905082815260208101848484011115612abd57612abc6129ce565b5b612ac8848285612a7f565b509392505050565b600082601f830112612ae557612ae46129c9565b5b8135612af5848260208601612a8e565b91505092915050565b600080600060608486031215612b1757612b1661281f565b5b6000612b25868287016128d5565b935050602084013567ffffffffffffffff811115612b4657612b45612824565b5b612b5286828701612ad0565b925050604084013567ffffffffffffffff811115612b7357612b72612824565b5b612b7f86828701612ad0565b9150509250925092565b612b9281612829565b82525050565b6000602082019050612bad6000830184612b89565b92915050565b612bbc816128ac565b82525050565b6000608082019050612bd76000830187612bb3565b612be46020830186612b89565b8181036040830152612bf6818561296e565b90508181036060830152612c0a818461296e565b905095945050505050565b7f4e487b7100000000000000000000000000000000000000000000000000000000600052602160045260246000fd5b60078110612c5557612c54612c15565b5b50565b6000819050612c6682612c44565b919050565b6000612c7682612c58565b9050919050565b612c8681612c6b565b82525050565b600061010082019050612ca2600083018b612b89565b8181036020830152612cb4818a61296e565b90508181036040830152612cc8818961296e565b9050612cd76060830188612b89565b612ce46080830187612b89565b612cf160a0830186612b89565b612cfe60c0830185612b89565b612d0b60e0830184612c7d565b9998505050505050505050565b6000602082019050612d2d6000830184612bb3565b92915050565b60008060408385031215612d4a57612d4961281f565b5b600083013567ffffffffffffffff811115612d6857612d67612824565b5b612d7485828601612ad0565b925050602083013567ffffffffffffffff811115612d9557612d94612824565b5b612da185828601612ad0565b9150509250929050565b7f496e76616c69642070726f647563742049440000000000000000000000000000600082015250565b6000612de1601283612922565b9150612dec82612dab565b602082019050919050565b60006020820190508181036000830152612e1081612dd4565b9050919050565b7f556e617574686f72697a6564206469737472696275746f720000000000000000600082015250565b6000612e4d601883612922565b9150612e5882612e17565b602082019050919050565b60006020820190508181036000830152612e7c81612e40565b9050919050565b7f496e76616c6964207374616765207472616e736974696f6e0000000000000000600082015250565b6000612eb9601883612922565b9150612ec482612e83565b602082019050919050565b60006020820190508181036000830152612ee881612eac565b9050919050565b7f4e487b7100000000000000000000000000000000000000000000000000000000600052601160045260246000fd5b6000612f2982612829565b91507fffffffffffffffffffffffffffffffffffffffffffffffffffffffffffffffff8203612f5b57612f5a612eef565b5b600182019050919050565b7f556e617574686f72697a65642072657461696c65720000000000000000000000600082015250565b6000612f9c601583612922565b9150612fa782612f66565b602082019050919050565b60006020820190508181036000830152612fcb81612f8f565b9050919050565b7f4f6e6c79206f776e65722063616e20706572666f726d2074686973206163746960008201527f6f6e000000000000000000000000000000000000000000000000000000000000602082015250565b600061302e602283612922565b915061303982612fd2565b604082019050919050565b6000602082019050818103600083015261305d81613021565b9050919050565b7f4e487b7100000000000000000000000000000000000000000000000000000000600052602260045260246000fd5b600060028204905060018216806130ab57607f821691505b6020821081036130be576130bd613064565b5b50919050565b60008190508160005260206000209050919050565b60006020601f8301049050919050565b600082821b905092915050565b6000600883026131267fffffffffffffffffffffffffffffffffffffffffffffffffffffffffffffffff826130e9565b61313086836130e9565b95508019841693508086168417925050509392505050565b6000819050919050565b600061316d61316861316384612829565b613148565b612829565b9050919050565b6000819050919050565b61318783613152565b61319b61319382613174565b8484546130f6565b825550505050565b600090565b6131b06131a3565b6131bb81848461317e565b505050565b5b818110156131df576131d46000826131a8565b6001810190506131c1565b5050565b601f821115613224576131f5816130c4565b6131fe846130d9565b8101602085101561320d578190505b613221613219856130d9565b8301826131c0565b50505b505050565b600082821c905092915050565b600061324760001984600802613229565b1980831691505092915050565b60006132608383613236565b9150826002028217905092915050565b61327982612917565b67ffffffffffffffff811115613292576132916129d3565b5b61329c8254613093565b6132a78282856131e3565b600060209050601f8311600181146132da57600084156132c8578287015190505b6132d28582613254565b86555061333a565b601f1984166132e8866130c4565b60005b82811015613310578489015182556001820191506020850194506020810190506132eb565b8683101561332d5784890151613329601f891682613236565b8355505b6001600288020188555050505b505050505050565b7f556e617574686f72697a6564206661726d657200000000000000000000000000600082015250565b6000613378601383612922565b915061338382613342565b602082019050919050565b600060208201905081810360008301526133a78161336b565b9050919050565b7f416c6c20726f6c6573206d75737420626520726567697374657265642066697260008201527f7374000000000000000000000000000000000000000000000000000000000000602082015250565b600061340a602283612922565b9150613415826133ae565b604082019050919050565b60006020820190508181036000830152613439816133fd565b9050919050565b6000604082019050818103600083015261345a818561296e565b9050818103602083015261346e818461296e565b90509392505050565b7f4e6f2070726f6475637473207265676973746572656420796574000000000000600082015250565b60006134ad601a83612922565b91506134b882613477565b602082019050919050565b600060208201905081810360008301526134dc816134a0565b9050919050565b7f556e617574686f72697a65642070726f636573736f7200000000000000000000600082015250565b6000613519601683612922565b9150613524826134e3565b602082019050919050565b600060208201905081810360008301526135488161350c565b905091905056fea264697066735822122083d6f2bff84161b98fffe4b302059c35697f6bb7d213ad42b3a12f9fe713e77e64736f6c634300081c0033",
  "linkReferences": {},
  "deployedLinkReferences": {}
}